{"abi":[{"type":"constructor","inputs":[],"stateMutability":"nonpayable"},{"type":"function","name":"approvePool","inputs":[{"name":"token","type":"address","internalType":"address"}],"outputs":[],"stateMutability":"nonpayable"},{"type":"function","name":"liquidate","inputs":[{"name":"collateral","type":"address","internalType":"address"},{"name":"debtAsset","type":"address","internalType":"address"},{"name":"user","type":"address","internalType":"address"},{"name":"debtToCover","type":"uint256","internalType":"uint256"},{"name":"liquidatedCollateralAmount","type":"uint256","internalType":"uint256"},{"name":"liquidator","type":"address","internalType":"address"},{"name":"receiveAToken","type":"bool","internalType":"bool"},{"name":"swapPath","type":"bytes","internalType":"bytes"}],"outputs":[{"name":"collateralGain","type":"int256","internalType":"int256"}],"stateMutability":"nonpayable"},{"type":"function","name":"owner","inputs":[],"outputs":[{"name":"","type":"address","internalType":"address"}],"stateMutability":"view"},{"type":"function","name":"pool","inputs":[],"outputs":[{"name":"","type":"address","internalType":"contract IPool"}],"stateMutability":"view"},{"type":"function","name":"recover","inputs":[{"name":"token","type":"address","internalType":"address"},{"name":"amount","type":"uint256","internalType":"uint256"}],"outputs":[],"stateMutability":"nonpayable"},{"type":"function","name":"transferOwnership","inputs":[{"name":"newOwner","type":"address","internalType":"address"}],"outputs":[],"stateMutability":"nonpayable"},{"type":"function","name":"uniswapV3SwapCallback","inputs":[{"name":"amount0Delta","type":"int256","internalType":"int256"},{"name":"amount1Delta","type":"int256","internalType":"int256"},{"name":"_data","type":"bytes","internalType":"bytes"}],"outputs":[],"stateMutability":"nonpayable"},{"type":"event","name":"OwnershipTransferred","inputs":[{"name":"user","type":"address","indexed":true,"internalType":"address"},{"name":"newOwner","type":"address","indexed":true,"internalType":"address"}],"anonymous":false}],"bytecode":{"object":"0x6080604052348015600e575f5ffd5b505f80546001600160a01b031916339081178255604051909182917f8be0079c531659141344cd1fd0a4f28419497f9722a3daafe3b4186f6b6457e0908290a35061120b8061005c5f395ff3fe608060405234801561000f575f5ffd5b506004361061007a575f3560e01c80638da5cb5b116100585780638da5cb5b146100de578063e8aed527146100f0578063f2fde38b14610111578063fa461e3314610124575f5ffd5b806316f0115b1461007e578063424c265b146100b65780635705ae43146100cb575b5f5ffd5b6100997332467b43bfa67273fc7ddda0999ee9a12f2aaa0881565b6040516001600160a01b0390911681526020015b60405180910390f35b6100c96100c4366004610c4f565b610137565b005b6100c96100d9366004610c6f565b6101ef565b5f54610099906001600160a01b031681565b6101036100fe366004610cf7565b6102c3565b6040519081526020016100ad565b6100c961011f366004610c4f565b610484565b6100c9610132366004610d9f565b6104f7565b5f546001600160a01b031633146101695760405162461bcd60e51b815260040161016090610dee565b60405180910390fd5b60405163095ea7b360e01b81527332467b43bfa67273fc7ddda0999ee9a12f2aaa0860048201525f1960248201526001600160a01b0382169063095ea7b3906044016020604051808303815f875af11580156101c7573d5f5f3e3d5ffd5b505050506040513d601f19601f820116820180604052508101906101eb9190610e14565b5050565b5f546001600160a01b031633146102185760405162461bcd60e51b815260040161016090610dee565b6001600160a01b03821661025557604051339082156108fc029083905f818181858888f19350505050158015610250573d5f5f3e3d5ffd5b505050565b60405163a9059cbb60e01b8152336004820152602481018290526001600160a01b0383169063a9059cbb906044016020604051808303815f875af115801561029f573d5f5f3e3d5ffd5b505050506040513d601f19601f820116820180604052508101906102509190610e14565b5f80546001600160a01b031633146102ed5760405162461bcd60e51b815260040161016090610dee565b6040516370a0823160e01b81523060048201525f906001600160a01b038c16906370a0823190602401602060405180830381865afa158015610331573d5f5f3e3d5ffd5b505050506040513d601f19601f820116820180604052508101906103559190610e2f565b90506104038860405180610100016040528087878080601f0160208091040260200160405190810160405280939291908181526020018383808284375f81840152601f19601f8201169050808301925050505050505081526020018e6001600160a01b031681526020018d6001600160a01b031681526020018c6001600160a01b031681526020018b81526020018a8152602001896001600160a01b0316815260200188151581525061069a565b6040516370a0823160e01b815230600482015281906001600160a01b038d16906370a0823190602401602060405180830381865afa158015610447573d5f5f3e3d5ffd5b505050506040513d601f19601f8201168201806040525081019061046b9190610e2f565b6104759190610e5a565b9b9a5050505050505050505050565b5f546001600160a01b031633146104ad5760405162461bcd60e51b815260040161016090610dee565b5f80546001600160a01b0319166001600160a01b0383169081178255604051909133917f8be0079c531659141344cd1fd0a4f28419497f9722a3daafe3b4186f6b6457e09190a350565b5f61050482840184610f49565b90505f5f5f610515845f01516107c7565b92509250925061054373ccf1769d8713099172642eb55ddffc0c5a444fe961053e858585610806565b610870565b60208401516040808601516060870151608088015160e0890151935162a718a960e01b81526001600160a01b0395861660048201529285166024840152931660448201526064810192909252151560848201527332467b43bfa67273fc7ddda0999ee9a12f2aaa089062a718a99060a4015f604051808303815f87803b1580156105cb575f5ffd5b505af11580156105dd573d5f5f3e3d5ffd5b505050505f5f89136105ef57876105f1565b885b90506105ff855f01516108c4565b1561061b57845161060f906108fd565b855261061b818661069a565b60405163a9059cbb60e01b81523360048201526024810182905292935083926001600160a01b0384169063a9059cbb906044016020604051808303815f875af115801561066a573d5f5f3e3d5ffd5b505050506040513d601f19601f8201168201806040525081019061068e9190610e14565b50505050505050505050565b5f5f5f6106a9845f01516107c7565b919450925090506001600160a01b03808416908316105f6106e873ccf1769d8713099172642eb55ddffc0c5a444fe96106e3868887610806565b610934565b90506001600160a01b03811663128acb0830846107048b61101f565b8661072d57610728600173fffd8963efd1fc6a506488495d951d5263988d26611039565b61073d565b61073d6401000276a36001611058565b8b60405160200161074e91906110a5565b6040516020818303038152906040526040518663ffffffff1660e01b815260040161077d959493929190611148565b60408051808303815f875af1158015610798573d5f5f3e3d5ffd5b505050506040513d601f19601f820116820180604052508101906107bc919061118d565b505050505050505050565b5f80806107d48482610a1a565b92506107e1846014610a7e565b61ffff1690506107fd6107f6600360146111af565b8590610a1a565b91509193909250565b604080516060810182525f8082526020820181905291810191909152826001600160a01b0316846001600160a01b03161115610840579192915b50604080516060810182526001600160a01b03948516815292909316602083015262ffffff169181019190915290565b5f61087b8383610934565b9050336001600160a01b038216146102505760405162461bcd60e51b815260206004820152600c60248201526b1a5b9d985b1a59081c1bdbdb60a21b6044820152606401610160565b5f6108d1600360146111af565b60146108de6003826111af565b6108e891906111af565b6108f291906111af565b825110159050919050565b606061092e61090e600360146111af565b61091a600360146111af565b845161092691906111c2565b849190610b28565b92915050565b5f81602001516001600160a01b0316825f01516001600160a01b031610610959575f5ffd5b815160208084015160408086015181516001600160a01b0395861681860152949092168482015262ffffff90911660608085019190915281518085038201815260808501909252815191909201206001600160f81b031960a08401529085901b6bffffffffffffffffffffffff191660a183015260b58201527fe34f199b19b2b4f47f68442619d555527d244f78a3297ea89325f843f87b8b5460d582015260f50160408051601f1981840301815291905280516020909101209392505050565b5f610a268260146111af565b83511015610a6e5760405162461bcd60e51b8152602060048201526015602482015274746f416464726573735f6f75744f66426f756e647360581b6044820152606401610160565b500160200151600160601b900490565b5f81610a8b8160036111af565b1015610acd5760405162461bcd60e51b8152602060048201526011602482015270746f55696e7432345f6f766572666c6f7760781b6044820152606401610160565b610ad88260036111af565b83511015610b1f5760405162461bcd60e51b8152602060048201526014602482015273746f55696e7432345f6f75744f66426f756e647360601b6044820152606401610160565b50016003015190565b606081610b3681601f6111af565b1015610b755760405162461bcd60e51b815260206004820152600e60248201526d736c6963655f6f766572666c6f7760901b6044820152606401610160565b610b7f82846111af565b84511015610bc35760405162461bcd60e51b8152602060048201526011602482015270736c6963655f6f75744f66426f756e647360781b6044820152606401610160565b606082158015610be15760405191505f825260208201604052610c2b565b6040519150601f8416801560200281840101858101878315602002848b0101015b81831015610c1a578051835260209283019201610c02565b5050858452601f01601f1916604052505b50949350505050565b80356001600160a01b0381168114610c4a575f5ffd5b919050565b5f60208284031215610c5f575f5ffd5b610c6882610c34565b9392505050565b5f5f60408385031215610c80575f5ffd5b610c8983610c34565b946020939093013593505050565b8015158114610ca4575f5ffd5b50565b8035610c4a81610c97565b5f5f83601f840112610cc2575f5ffd5b50813567ffffffffffffffff811115610cd9575f5ffd5b602083019150836020828501011115610cf0575f5ffd5b9250929050565b5f5f5f5f5f5f5f5f5f6101008a8c031215610d10575f5ffd5b610d198a610c34565b9850610d2760208b01610c34565b9750610d3560408b01610c34565b965060608a0135955060808a01359450610d5160a08b01610c34565b935060c08a0135610d6181610c97565b925060e08a013567ffffffffffffffff811115610d7c575f5ffd5b610d888c828d01610cb2565b915080935050809150509295985092959850929598565b5f5f5f5f60608587031215610db2575f5ffd5b8435935060208501359250604085013567ffffffffffffffff811115610dd6575f5ffd5b610de287828801610cb2565b95989497509550505050565b6020808252600c908201526b15539055551213d49256915160a21b604082015260600190565b5f60208284031215610e24575f5ffd5b8151610c6881610c97565b5f60208284031215610e3f575f5ffd5b5051919050565b634e487b7160e01b5f52601160045260245ffd5b8181035f831280158383131683831282161715610e7957610e79610e46565b5092915050565b634e487b7160e01b5f52604160045260245ffd5b604051610100810167ffffffffffffffff81118282101715610eb857610eb8610e80565b60405290565b5f82601f830112610ecd575f5ffd5b813567ffffffffffffffff811115610ee757610ee7610e80565b604051601f8201601f19908116603f0116810167ffffffffffffffff81118282101715610f1657610f16610e80565b604052818152838201602001851015610f2d575f5ffd5b816020850160208301375f918101602001919091529392505050565b5f60208284031215610f59575f5ffd5b813567ffffffffffffffff811115610f6f575f5ffd5b82016101008185031215610f81575f5ffd5b610f89610e94565b813567ffffffffffffffff811115610f9f575f5ffd5b610fab86828501610ebe565b825250610fba60208301610c34565b6020820152610fcb60408301610c34565b6040820152610fdc60608301610c34565b60608201526080828101359082015260a0808301359082015261100160c08301610c34565b60c082015261101260e08301610ca7565b60e0820152949350505050565b5f600160ff1b820161103357611033610e46565b505f0390565b6001600160a01b03828116828216039081111561092e5761092e610e46565b6001600160a01b03818116838216019081111561092e5761092e610e46565b5f81518084528060208401602086015e5f602082860101526020601f19601f83011685010191505092915050565b602081525f825161010060208401526110c2610120840182611077565b905060018060a01b03602085015116604084015260018060a01b036040850151166060840152606084015161110260808501826001600160a01b03169052565b50608084015160a084015260a084015160c084015260c084015161113160e08501826001600160a01b03169052565b5060e0840151801515610100850152509392505050565b6001600160a01b0386811682528515156020830152604082018590528316606082015260a0608082018190525f9061118290830184611077565b979650505050505050565b5f5f6040838503121561119e575f5ffd5b505080516020909101519092909150565b8082018082111561092e5761092e610e46565b8181038181111561092e5761092e610e4656fea26469706673582212203b1cf28fbe78201d2fead80d446328fe6a0e322af7ed6e7b3d699859825286fd64736f6c634300081c0033","linkReferences":{}},"methodIdentifiers":{"approvePool(address)":"424c265b","liquidate(address,address,address,uint256,uint256,address,bool,bytes)":"e8aed527","owner()":"8da5cb5b","pool()":"16f0115b","recover(address,uint256)":"5705ae43","transferOwnership(address)":"f2fde38b","uniswapV3SwapCallback(int256,int256,bytes)":"fa461e33"},"id":2}